{
  "_format": "hh-sol-artifact-1",
  "contractName": "VerifyProduct",
  "sourceName": "contracts/VerifyProduct.sol",
  "abi": [
    {
      "anonymous": false,
      "inputs": [
        {
          "indexed": false,
          "internalType": "uint256",
          "name": "productId",
          "type": "uint256"
        },
        {
          "indexed": false,
          "internalType": "string",
          "name": "pharmacy",
          "type": "string"
        },
        {
          "indexed": false,
          "internalType": "string",
          "name": "serial",
          "type": "string"
        },
        {
          "indexed": false,
          "internalType": "uint256",
          "name": "timestamp",
          "type": "uint256"
        }
      ],
      "name": "Verify",
      "type": "event"
    },
    {
      "inputs": [
        {
          "internalType": "uint256",
          "name": "productId",
          "type": "uint256"
        },
        {
          "internalType": "string",
          "name": "pharmacy",
          "type": "string"
        },
        {
          "internalType": "string",
          "name": "serial",
          "type": "string"
        }
      ],
      "name": "addVerification",
      "outputs": [
        {
          "internalType": "bool",
          "name": "",
          "type": "bool"
        }
      ],
      "stateMutability": "nonpayable",
      "type": "function"
    },
    {
      "inputs": [],
      "name": "getAllVerifications",
      "outputs": [
        {
          "components": [
            {
              "internalType": "uint256",
              "name": "productId",
              "type": "uint256"
            },
            {
              "internalType": "string",
              "name": "pharmacy",
              "type": "string"
            },
            {
              "internalType": "string",
              "name": "serial",
              "type": "string"
            },
            {
              "internalType": "uint256",
              "name": "timestamp",
              "type": "uint256"
            }
          ],
          "internalType": "struct VerifyProduct.VerifyStruct[]",
          "name": "",
          "type": "tuple[]"
        }
      ],
      "stateMutability": "view",
      "type": "function"
    },
    {
      "inputs": [],
      "name": "getVerificationCount",
      "outputs": [
        {
          "internalType": "uint256",
          "name": "",
          "type": "uint256"
        }
      ],
      "stateMutability": "view",
      "type": "function"
    }
  ],
  "bytecode": "0x60806040526000805534801561001457600080fd5b506109bf806100246000396000f3fe608060405234801561001057600080fd5b50600436106100415760003560e01c80631e80645a146100465780631f05b37414610076578063e4c085e914610094575b600080fd5b610060600480360381019061005b9190610471565b6100b2565b60405161006d91906106a4565b60405180910390f35b61007e6101b1565b60405161008b91906106bf565b60405180910390f35b61009c6101ba565b6040516100a99190610682565b60405180910390f35b600060016000808282546100c691906107f4565b925050819055506001604051806080016040528086815260200185815260200184815260200142815250908060018154018082558091505060019003906000526020600020906004020160009091909190915060008201518160000155602082015181600101908051906020019061013f929190610351565b50604082015181600201908051906020019061015c929190610351565b506060820151816003015550507fd28818c3f83cdc9dadf20873c1c697c64b8c40fc80e22c4b23a74f15f1d073fc8484844260405161019e94939291906106da565b60405180910390a1600190509392505050565b60008054905090565b60606001805480602002602001604051908101604052809291908181526020016000905b8282101561034857838290600052602060002090600402016040518060800160405290816000820154815260200160018201805461021b906108a2565b80601f0160208091040260200160405190810160405280929190818152602001828054610247906108a2565b80156102945780601f1061026957610100808354040283529160200191610294565b820191906000526020600020905b81548152906001019060200180831161027757829003601f168201915b505050505081526020016002820180546102ad906108a2565b80601f01602080910402602001604051908101604052809291908181526020018280546102d9906108a2565b80156103265780601f106102fb57610100808354040283529160200191610326565b820191906000526020600020905b81548152906001019060200180831161030957829003601f168201915b50505050508152602001600382015481525050815260200190600101906101de565b50505050905090565b82805461035d906108a2565b90600052602060002090601f01602090048101928261037f57600085556103c6565b82601f1061039857805160ff19168380011785556103c6565b828001600101855582156103c6579182015b828111156103c55782518255916020019190600101906103aa565b5b5090506103d391906103d7565b5090565b5b808211156103f05760008160009055506001016103d8565b5090565b60006104076104028461075e565b61072d565b90508281526020810184848401111561041f57600080fd5b61042a848285610860565b509392505050565b600082601f83011261044357600080fd5b81356104538482602086016103f4565b91505092915050565b60008135905061046b81610972565b92915050565b60008060006060848603121561048657600080fd5b60006104948682870161045c565b935050602084013567ffffffffffffffff8111156104b157600080fd5b6104bd86828701610432565b925050604084013567ffffffffffffffff8111156104da57600080fd5b6104e686828701610432565b9150509250925092565b60006104fc83836105fa565b905092915050565b600061050f8261079e565b61051981856107c1565b93508360208202850161052b8561078e565b8060005b85811015610567578484038952815161054885826104f0565b9450610553836107b4565b925060208a0199505060018101905061052f565b50829750879550505050505092915050565b6105828161084a565b82525050565b6000610593826107a9565b61059d81856107d2565b93506105ad81856020860161086f565b6105b681610961565b840191505092915050565b60006105cc826107a9565b6105d681856107e3565b93506105e681856020860161086f565b6105ef81610961565b840191505092915050565b60006080830160008301516106126000860182610664565b506020830151848203602086015261062a8282610588565b915050604083015184820360408601526106448282610588565b91505060608301516106596060860182610664565b508091505092915050565b61066d81610856565b82525050565b61067c81610856565b82525050565b6000602082019050818103600083015261069c8184610504565b905092915050565b60006020820190506106b96000830184610579565b92915050565b60006020820190506106d46000830184610673565b92915050565b60006080820190506106ef6000830187610673565b818103602083015261070181866105c1565b9050818103604083015261071581856105c1565b90506107246060830184610673565b95945050505050565b6000604051905081810181811067ffffffffffffffff8211171561075457610753610932565b5b8060405250919050565b600067ffffffffffffffff82111561077957610778610932565b5b601f19601f8301169050602081019050919050565b6000819050602082019050919050565b600081519050919050565b600081519050919050565b6000602082019050919050565b600082825260208201905092915050565b600082825260208201905092915050565b600082825260208201905092915050565b60006107ff82610856565b915061080a83610856565b9250827fffffffffffffffffffffffffffffffffffffffffffffffffffffffffffffffff0382111561083f5761083e6108d4565b5b828201905092915050565b60008115159050919050565b6000819050919050565b82818337600083830152505050565b60005b8381101561088d578082015181840152602081019050610872565b8381111561089c576000848401525b50505050565b600060028204905060018216806108ba57607f821691505b602082108114156108ce576108cd610903565b5b50919050565b7f4e487b7100000000000000000000000000000000000000000000000000000000600052601160045260246000fd5b7f4e487b7100000000000000000000000000000000000000000000000000000000600052602260045260246000fd5b7f4e487b7100000000000000000000000000000000000000000000000000000000600052604160045260246000fd5b6000601f19601f8301169050919050565b61097b81610856565b811461098657600080fd5b5056fea26469706673582212204b7d01eeabd41d18f412f6431e4a2f9cefb2bb7ee968f88a45e8e7e3851bb37c64736f6c63430008000033",
  "linkReferences": {},
  "deployedLinkReferences": {}
}