{
  "_format": "hh-sol-artifact-1",
  "contractName": "Transactions",
  "sourceName": "contracts/Transactions.sol",
  "abi": [
    {
      "anonymous": false,
      "inputs": [
        {
          "indexed": false,
          "internalType": "address",
          "name": "from",
          "type": "address"
        },
        {
          "indexed": false,
          "internalType": "address",
          "name": "receiver",
          "type": "address"
        },
        {
          "indexed": false,
          "internalType": "uint256",
          "name": "amount",
          "type": "uint256"
        },
        {
          "indexed": false,
          "internalType": "string",
          "name": "message",
          "type": "string"
        },
        {
          "indexed": false,
          "internalType": "uint256",
          "name": "timestamp",
          "type": "uint256"
        },
        {
          "indexed": false,
          "internalType": "string",
          "name": "keyword",
          "type": "string"
        },
        {
          "indexed": false,
          "internalType": "bytes32",
          "name": "transactionHash",
          "type": "bytes32"
        }
      ],
      "name": "Transfer",
      "type": "event"
    },
    {
      "inputs": [
        {
          "internalType": "address payable",
          "name": "receiver",
          "type": "address"
        },
        {
          "internalType": "uint256",
          "name": "amount",
          "type": "uint256"
        },
        {
          "internalType": "string",
          "name": "message",
          "type": "string"
        },
        {
          "internalType": "string",
          "name": "keyword",
          "type": "string"
        }
      ],
      "name": "addToBlockchain",
      "outputs": [
        {
          "internalType": "bool",
          "name": "",
          "type": "bool"
        }
      ],
      "stateMutability": "nonpayable",
      "type": "function"
    },
    {
      "inputs": [],
      "name": "getAllTransactions",
      "outputs": [
        {
          "components": [
            {
              "internalType": "address",
              "name": "sender",
              "type": "address"
            },
            {
              "internalType": "address",
              "name": "receiver",
              "type": "address"
            },
            {
              "internalType": "uint256",
              "name": "amount",
              "type": "uint256"
            },
            {
              "internalType": "string",
              "name": "message",
              "type": "string"
            },
            {
              "internalType": "uint256",
              "name": "timestamp",
              "type": "uint256"
            },
            {
              "internalType": "string",
              "name": "keyword",
              "type": "string"
            },
            {
              "internalType": "bytes32",
              "name": "transactionHash",
              "type": "bytes32"
            }
          ],
          "internalType": "struct Transactions.TransferStruct[]",
          "name": "",
          "type": "tuple[]"
        }
      ],
      "stateMutability": "view",
      "type": "function"
    },
    {
      "inputs": [],
      "name": "getTransactionCount",
      "outputs": [
        {
          "internalType": "uint256",
          "name": "",
          "type": "uint256"
        }
      ],
      "stateMutability": "view",
      "type": "function"
    }
  ],
  "bytecode": "0x6080604052600160005534801561001557600080fd5b50610e30806100256000396000f3fe608060405234801561001057600080fd5b50600436106100415760003560e01c806327506f53146100465780632e7700f014610064578063cc2d7ead14610082575b600080fd5b61004e6100b2565b60405161005b9190610a53565b60405180910390f35b61006c6102ff565b6040516100799190610a90565b60405180910390f35b61009c6004803603810190610097919061064f565b610308565b6040516100a99190610a75565b60405180910390f35b60606001805480602002602001604051908101604052809291908181526020016000905b828210156102f657838290600052602060002090600702016040518060e00160405290816000820160009054906101000a900473ffffffffffffffffffffffffffffffffffffffff1673ffffffffffffffffffffffffffffffffffffffff1673ffffffffffffffffffffffffffffffffffffffff1681526020016001820160009054906101000a900473ffffffffffffffffffffffffffffffffffffffff1673ffffffffffffffffffffffffffffffffffffffff1673ffffffffffffffffffffffffffffffffffffffff168152602001600282015481526020016003820180546101bf90610caf565b80601f01602080910402602001604051908101604052809291908181526020018280546101eb90610caf565b80156102385780601f1061020d57610100808354040283529160200191610238565b820191906000526020600020905b81548152906001019060200180831161021b57829003601f168201915b505050505081526020016004820154815260200160058201805461025b90610caf565b80601f016020809104026020016040519081016040528092919081815260200182805461028790610caf565b80156102d45780601f106102a9576101008083540402835291602001916102d4565b820191906000526020600020905b8154815290600101906020018083116102b757829003601f168201915b50505050508152602001600682015481525050815260200190600101906100d6565b50505050905090565b60008054905090565b6000600160008082825461031c9190610b7d565b9250508190555060003386868642876040516020016103409695949392919061096e565b60405160208183030381529060405280519060200120905060016040518060e001604052803373ffffffffffffffffffffffffffffffffffffffff1681526020018873ffffffffffffffffffffffffffffffffffffffff16815260200187815260200186815260200142815260200185815260200183815250908060018154018082558091505060019003906000526020600020906007020160009091909190915060008201518160000160006101000a81548173ffffffffffffffffffffffffffffffffffffffff021916908373ffffffffffffffffffffffffffffffffffffffff16021790555060208201518160010160006101000a81548173ffffffffffffffffffffffffffffffffffffffff021916908373ffffffffffffffffffffffffffffffffffffffff16021790555060408201518160020155606082015181600301908051906020019061049692919061051a565b506080820151816004015560a08201518160050190805190602001906104bd92919061051a565b5060c0820151816006015550507f7be5f74c5c0d664a080f27052f691ace6986e6459641abe4c1474f1d971f21663387878742888760405161050597969594939291906109d6565b60405180910390a16001915050949350505050565b82805461052690610caf565b90600052602060002090601f016020900481019282610548576000855561058f565b82601f1061056157805160ff191683800117855561058f565b8280016001018555821561058f579182015b8281111561058e578251825591602001919060010190610573565b5b50905061059c91906105a0565b5090565b5b808211156105b95760008160009055506001016105a1565b5090565b60006105d06105cb84610adc565b610aab565b9050828152602081018484840111156105e857600080fd5b6105f3848285610c6d565b509392505050565b60008135905061060a81610dcc565b92915050565b600082601f83011261062157600080fd5b81356106318482602086016105bd565b91505092915050565b60008135905061064981610de3565b92915050565b6000806000806080858703121561066557600080fd5b6000610673878288016105fb565b94505060206106848782880161063a565b935050604085013567ffffffffffffffff8111156106a157600080fd5b6106ad87828801610610565b925050606085013567ffffffffffffffff8111156106ca57600080fd5b6106d687828801610610565b91505092959194509250565b60006106ee8383610896565b905092915050565b6106ff81610c37565b82525050565b61071661071182610be5565b610cf3565b82525050565b61072581610bd3565b82525050565b61073481610bd3565b82525050565b61074b61074682610bd3565b610ce1565b82525050565b600061075c82610b1c565b6107668185610b3f565b93508360208202850161077885610b0c565b8060005b858110156107b4578484038952815161079585826106e2565b94506107a083610b32565b925060208a0199505060018101905061077c565b50829750879550505050505092915050565b6107cf81610bf7565b82525050565b6107de81610c03565b82525050565b6107ed81610c03565b82525050565b60006107fe82610b27565b6108088185610b50565b9350610818818560208601610c7c565b61082181610dae565b840191505092915050565b600061083782610b27565b6108418185610b61565b9350610851818560208601610c7c565b61085a81610dae565b840191505092915050565b600061087082610b27565b61087a8185610b72565b935061088a818560208601610c7c565b80840191505092915050565b600060e0830160008301516108ae600086018261071c565b5060208301516108c1602086018261071c565b5060408301516108d46040860182610939565b50606083015184820360608601526108ec82826107f3565b91505060808301516109016080860182610939565b5060a083015184820360a086015261091982826107f3565b91505060c083015161092e60c08601826107d5565b508091505092915050565b61094281610c2d565b82525050565b61095181610c2d565b82525050565b61096861096382610c2d565b610d17565b82525050565b600061097a828961073a565b60148201915061098a8288610705565b60148201915061099a8287610957565b6020820191506109aa8286610865565b91506109b68285610957565b6020820191506109c68284610865565b9150819050979650505050505050565b600060e0820190506109eb600083018a61072b565b6109f860208301896106f6565b610a056040830188610948565b8181036060830152610a17818761082c565b9050610a266080830186610948565b81810360a0830152610a38818561082c565b9050610a4760c08301846107e4565b98975050505050505050565b60006020820190508181036000830152610a6d8184610751565b905092915050565b6000602082019050610a8a60008301846107c6565b92915050565b6000602082019050610aa56000830184610948565b92915050565b6000604051905081810181811067ffffffffffffffff82111715610ad257610ad1610d7f565b5b8060405250919050565b600067ffffffffffffffff821115610af757610af6610d7f565b5b601f19601f8301169050602081019050919050565b6000819050602082019050919050565b600081519050919050565b600081519050919050565b6000602082019050919050565b600082825260208201905092915050565b600082825260208201905092915050565b600082825260208201905092915050565b600081905092915050565b6000610b8882610c2d565b9150610b9383610c2d565b9250827fffffffffffffffffffffffffffffffffffffffffffffffffffffffffffffffff03821115610bc857610bc7610d21565b5b828201905092915050565b6000610bde82610c0d565b9050919050565b6000610bf082610c0d565b9050919050565b60008115159050919050565b6000819050919050565b600073ffffffffffffffffffffffffffffffffffffffff82169050919050565b6000819050919050565b6000610c4282610c49565b9050919050565b6000610c5482610c5b565b9050919050565b6000610c6682610c0d565b9050919050565b82818337600083830152505050565b60005b83811015610c9a578082015181840152602081019050610c7f565b83811115610ca9576000848401525b50505050565b60006002820490506001821680610cc757607f821691505b60208210811415610cdb57610cda610d50565b5b50919050565b6000610cec82610d05565b9050919050565b6000610cfe82610d05565b9050919050565b6000610d1082610dbf565b9050919050565b6000819050919050565b7f4e487b7100000000000000000000000000000000000000000000000000000000600052601160045260246000fd5b7f4e487b7100000000000000000000000000000000000000000000000000000000600052602260045260246000fd5b7f4e487b7100000000000000000000000000000000000000000000000000000000600052604160045260246000fd5b6000601f19601f8301169050919050565b60008160601b9050919050565b610dd581610be5565b8114610de057600080fd5b50565b610dec81610c2d565b8114610df757600080fd5b5056fea2646970667358221220e6d1c7457ec69c142b6628e78c113b7ef6c952ce7e74562b662c3cfeb9cb70ac64736f6c63430008000033",
  "linkReferences": {},
  "deployedLinkReferences": {}
}